{
  "_format": "hh-sol-artifact-1",
  "contractName": "TokenSwap",
  "sourceName": "contracts/TokenSwap.sol",
  "abi": [
    {
      "inputs": [],
      "stateMutability": "nonpayable",
      "type": "constructor"
    },
    {
      "anonymous": false,
      "inputs": [
        {
          "indexed": true,
          "internalType": "address",
          "name": "user",
          "type": "address"
        },
        {
          "indexed": false,
          "internalType": "uint256",
          "name": "ethAmount",
          "type": "uint256"
        },
        {
          "indexed": false,
          "internalType": "uint256",
          "name": "nusdAmount",
          "type": "uint256"
        }
      ],
      "name": "Deposit",
      "type": "event"
    },
    {
      "anonymous": false,
      "inputs": [
        {
          "indexed": true,
          "internalType": "address",
          "name": "user",
          "type": "address"
        },
        {
          "indexed": false,
          "internalType": "uint256",
          "name": "nusdAmount",
          "type": "uint256"
        },
        {
          "indexed": false,
          "internalType": "uint256",
          "name": "ethAmount",
          "type": "uint256"
        }
      ],
      "name": "Redeem",
      "type": "event"
    },
    {
      "inputs": [],
      "name": "deposit",
      "outputs": [],
      "stateMutability": "payable",
      "type": "function"
    },
    {
      "inputs": [
        {
          "internalType": "address",
          "name": "account",
          "type": "address"
        }
      ],
      "name": "getBalance",
      "outputs": [
        {
          "internalType": "uint256",
          "name": "",
          "type": "uint256"
        }
      ],
      "stateMutability": "view",
      "type": "function"
    },
    {
      "inputs": [],
      "name": "getETHUSDPrice",
      "outputs": [
        {
          "internalType": "uint256",
          "name": "",
          "type": "uint256"
        }
      ],
      "stateMutability": "view",
      "type": "function"
    },
    {
      "inputs": [],
      "name": "getTotalSupply",
      "outputs": [
        {
          "internalType": "uint256",
          "name": "",
          "type": "uint256"
        }
      ],
      "stateMutability": "view",
      "type": "function"
    },
    {
      "inputs": [
        {
          "internalType": "uint256",
          "name": "nusdAmount",
          "type": "uint256"
        }
      ],
      "name": "redeem",
      "outputs": [],
      "stateMutability": "nonpayable",
      "type": "function"
    }
  ],
  "bytecode": "0x608060405234801561001057600080fd5b50336000806101000a81548173ffffffffffffffffffffffffffffffffffffffff021916908373ffffffffffffffffffffffffffffffffffffffff1602179055506002600181905550600280819055506000600381905550731b44f3514812d835eb1bdb0acb33d3fa3351ee43600560006101000a81548173ffffffffffffffffffffffffffffffffffffffff021916908373ffffffffffffffffffffffffffffffffffffffff160217905550610a29806100cc6000396000f3fe60806040526004361061004a5760003560e01c8063bf4b19901461004f578063c4e41b221461007a578063d0e30db0146100a5578063db006a75146100af578063f8b2cb4f146100d8575b600080fd5b34801561005b57600080fd5b50610064610115565b6040516100719190610773565b60405180910390f35b34801561008657600080fd5b5061008f6101d4565b60405161009c9190610773565b60405180910390f35b6100ad6101de565b005b3480156100bb57600080fd5b506100d660048036038101906100d191906105a4565b610313565b005b3480156100e457600080fd5b506100ff60048036038101906100fa919061057b565b6104c9565b60405161010c9190610773565b60405180910390f35b600080600560009054906101000a900473ffffffffffffffffffffffffffffffffffffffff1673ffffffffffffffffffffffffffffffffffffffff1663feaf968c6040518163ffffffff1660e01b815260040160a06040518083038186803b15801561018057600080fd5b505afa158015610194573d6000803e3d6000fd5b505050506040513d601f19601f820116820180604052508101906101b891906105cd565b5050509150506305f5e100816101ce919061081e565b91505090565b6000600354905090565b600034905060008111610226576040517f08c379a000000000000000000000000000000000000000000000000000000000815260040161021d90610753565b60405180910390fd5b6000610230610115565b905060006001548284610243919061084f565b61024d919061081e565b905080600460003373ffffffffffffffffffffffffffffffffffffffff1673ffffffffffffffffffffffffffffffffffffffff168152602001908152602001600020600082825461029e91906107c8565b9250508190555080600360008282546102b791906107c8565b925050819055503373ffffffffffffffffffffffffffffffffffffffff167f90890809c654f11d6e72a28fa60149770a0d11ec6c92319d6ceb2bb0a4ea1a15848360405161030692919061078e565b60405180910390a2505050565b60008111610356576040517f08c379a000000000000000000000000000000000000000000000000000000000815260040161034d90610713565b60405180910390fd5b6000610360610115565b905060008183610370919061084f565b90506000600282610381919061084f565b905080600460003373ffffffffffffffffffffffffffffffffffffffff1673ffffffffffffffffffffffffffffffffffffffff1681526020019081526020016000205411610404576040517f08c379a00000000000000000000000000000000000000000000000000000000081526004016103fb90610733565b60405180910390fd5b80600460003373ffffffffffffffffffffffffffffffffffffffff1673ffffffffffffffffffffffffffffffffffffffff168152602001908152602001600020600082825461045391906108a9565b92505081905550806003600082825461046c91906108a9565b925050819055503373ffffffffffffffffffffffffffffffffffffffff167fe5b754fb1abb7f01b499791d0b820ae3b6af3424ac1c59768edb53f4ec31a92982846040516104bb92919061078e565b60405180910390a250505050565b6000600460008373ffffffffffffffffffffffffffffffffffffffff1673ffffffffffffffffffffffffffffffffffffffff168152602001908152602001600020549050919050565b60008135905061052181610997565b92915050565b600081519050610536816109ae565b92915050565b60008135905061054b816109c5565b92915050565b600081519050610560816109c5565b92915050565b600081519050610575816109dc565b92915050565b60006020828403121561058d57600080fd5b600061059b84828501610512565b91505092915050565b6000602082840312156105b657600080fd5b60006105c48482850161053c565b91505092915050565b600080600080600060a086880312156105e557600080fd5b60006105f388828901610566565b955050602061060488828901610527565b945050604061061588828901610551565b935050606061062688828901610551565b925050608061063788828901610566565b9150509295509295909350565b60006106516014836107b7565b91507f496e76616c6964206e55534420616d6f756e742e0000000000000000000000006000830152602082019050919050565b6000610691601a836107b7565b91507f496e73756666696369656e74206e6e55534420616d6f756e742e0000000000006000830152602082019050919050565b60006106d16013836107b7565b91507f496e76616c69642045544820616d6f756e742e000000000000000000000000006000830152602082019050919050565b61070d81610919565b82525050565b6000602082019050818103600083015261072c81610644565b9050919050565b6000602082019050818103600083015261074c81610684565b9050919050565b6000602082019050818103600083015261076c816106c4565b9050919050565b60006020820190506107886000830184610704565b92915050565b60006040820190506107a36000830185610704565b6107b06020830184610704565b9392505050565b600082825260208201905092915050565b60006107d382610919565b91506107de83610919565b9250827fffffffffffffffffffffffffffffffffffffffffffffffffffffffffffffffff0382111561081357610812610939565b5b828201905092915050565b600061082982610919565b915061083483610919565b92508261084457610843610968565b5b828204905092915050565b600061085a82610919565b915061086583610919565b9250817fffffffffffffffffffffffffffffffffffffffffffffffffffffffffffffffff048311821515161561089e5761089d610939565b5b828202905092915050565b60006108b482610919565b91506108bf83610919565b9250828210156108d2576108d1610939565b5b828203905092915050565b60006108e8826108f9565b9050919050565b6000819050919050565b600073ffffffffffffffffffffffffffffffffffffffff82169050919050565b6000819050919050565b600069ffffffffffffffffffff82169050919050565b7f4e487b7100000000000000000000000000000000000000000000000000000000600052601160045260246000fd5b7f4e487b7100000000000000000000000000000000000000000000000000000000600052601260045260246000fd5b6109a0816108dd565b81146109ab57600080fd5b50565b6109b7816108ef565b81146109c257600080fd5b50565b6109ce81610919565b81146109d957600080fd5b50565b6109e581610923565b81146109f057600080fd5b5056fea26469706673582212201533c9485c8d29598db860382711880a7a2b7dd66af12eb01d28b8fdcef25f9c64736f6c63430008000033",
  "linkReferences": {},
  "deployedLinkReferences": {}
}